:020000040800F2
:10000000E80500209D0100087F1000085F0F000830
:100010007D100008F9020008191700080000000010
:100020000000000000000000000000007111000846
:10003000FB02000800000000811000087316000891
:10004000B7010008B7010008B7010008B7010008B0
:10005000B7010008B7010008B7010008B7010008A0
:10006000B7010008B7010008B7010008B701000890
:10007000B7010008B7010008B7010008B701000880
:10008000B7010008B7010008B7010008B701000870
:10009000B7010008B7010008B7010008B701000860
:1000A000B7010008B7010008B7010008B701000850
:1000B000B7010008B7010008B7010008B701000840
:1000C000B7010008B7010008B7010008B701000830
:1000D000B7010008B7010008B7010008B701000820
:1000E000B7010008B7010008B7010008B701000810
:1000F000B7010008B7010008B7010008B701000800
:10010000B7010008B7010008B7010008B7010008EF
:10011000B7010008B7010008B7010008B7010008DF
:10012000B7010008B7010008B7010008B7010008CF
:10013000B7010008B7010008B7010008B7010008BF
:10014000B7010008B7010008B7010008B7010008AF
:10015000B7010008B7010008B7010008B70100089F
:10016000B7010008B7010008B7010008B70100088F
:10017000B7010008B7010008B7010008000000003F
:10018000B7010008B7010008DFF80CD000F0A2F8B2
:1001900000480047051B0008E80500200648804786
:1001A00006480047FEE7FEE7FEE7FEE7FEE7FEE75C
:1001B000FEE7FEE7FEE7FEE7FD16000889010008FE
:1001C0002DE9F05F0546002092469B46884606468C
:1001D000814640241BE0284641464746224600F01F
:1001E00069F853465A46C01A914110D31146184631
:1001F000224600F050F82D1A67EB01084F462246C0
:100200000120002100F047F817EB00094E41201EA5
:10021000A4F10104DFDC484631462A464346BDE8E6
:10022000F09F40EA01039B0703D009E008C9121FB1
:1002300008C0042AFAD203E011F8013B00F8013BA0
:10024000521EF9D27047D2B201E000F8012B491ECC
:10025000FBD270470022F6E710B513460A46044663
:100260001946FFF7F0FF204610BD30B50B4601469A
:1002700000202022012409E021FA02F59D4205D345
:1002800003FA02F5491B04FA02F52844151EA2F1EF
:100290000102F1DC30BD202A04DB203A00FA02F131
:1002A000002070479140C2F1200320FA03F3194364
:1002B00090407047202A04DB203A21FA02F0002106
:1002C000704721FA02F3D040C2F120029140084366
:1002D00019467047064C074D06E0E06840F0010300
:1002E00094E8070098471034AC42F6D3FFF750FF6C
:1002F000CC1D0008EC1D0008FEE7704770470000A9
:1003000070B5044600F0F4F80546601C02D00448BD
:100310000078044400F0ECF8401BA042FAD370BD12
:10032000100000202DE9F84F00224FF001080325AE
:100330004FF00F0E0B6808FA02F42340A3426ED16F
:100340004E68012E05D0022E03D0112E01D0122EA0
:1003500012D186684FEA420C05FA0CF7BE43CF680B
:1003600007FA0CF7374387604668A6430C79C4F355
:100370000014944034434460C668570005FA07FCF3
:100380008C6826EA0C06BC403443C4604C68022CDE
:1003900001D0122C13D1D40800EB8404A346D4F866
:1003A000209054074FEAD46A0EFA0AF629EA0609A1
:1003B0000E6906FA0AF646EA0906CBF820600668D6
:1003C0000C7926EA0C0604F00304BC4034430460B4
:1003D0004C68E40065D5364C266846F480462660B5
:1003E000246822F0030604F480440094314C344421
:1003F000A446D4F808489607370F0EFA07F6B44318
:100400002D4EB04201D1002624E02C4EB04201D145
:1004100001261FE02A4EB04202D102261AE040E037
:10042000284EB04201D1032614E0274EB04201D13C
:1004300004260FE0254EB04201D105260AE0244EE5
:10044000B04201D1062605E0224EB04201D1072676
:1004500000E00826BE402643CCF808681E4E3468EB
:100460004F689C43FF0300D51C4334601A4C241D85
:1004700026684F689E43BF0300D51E432660164E74
:10048000083634684F689C43FF0200D51C43346033
:10049000114E0C3634684F689C43BF0200D51C4394
:1004A0003460521C102AFFF445AFBDE8F88F0000FD
:1004B0004438024000300140000002400004024085
:1004C00000080240000C02400010024000140240EC
:1004D00000180240001C0240003C01400069084036
:1004E00000D0012070470AB1816170470904FBE721
:1004F00001488068704700001000002002488168B1
:100500000278114481607047100000200B4810B53C
:10051000016841F400710160016841F4806101608B
:10052000016841F480710160032000F063F800204D
:1005300000F006F800F024F8002010BD003C024056
:1005400070B50D4D04464FF47A712878B1FBF0F088
:100550000A490968B1FBF0F000F0EDFC48B9102C35
:1005600007D200222146501E00F024F800206C60C3
:1005700070BD012070BD0000100000201C00002094
:100580000B4882B0016841F480410160006800F4CA
:10059000804000900648001F016841F080510160D2
:1005A000006800F080500090072002B000F022B8F0
:1005B00044380240F0B40E4B1B680C46C3F30223D0
:1005C000C3F10705042D00D90425191D072901D2FF
:1005D000002300E0DB1E012606FA05F1491E21403A
:1005E00099409E40761E16403143F0BC01F0BAB8E7
:1005F0000CED00E0064900F0070208684FF6FF0323
:10060000184040EA0220034A104308607047000087
:100610000CED00E00000FA052DE9F0470E4605005C
:1006200065D0DFF81481D8F80000F7B200F00F00B1
:10063000B04207D288F80070D8F8000000F00F0030
:10064000B04254D128683D4C810712D5400703D5EC
:10065000206840F4E05020602878000703D5206827
:1006600040F4604020602068A96820F0F000084352
:1006700020602878C0072DD03049686808390128E3
:1006800012D0022813D0032811D009688907002945
:100690002DDA216821F0030101432160FFF728FFD3
:1006A000814641F2883A0EE009688903EFE709685C
:1006B0008901ECE7FFF71CFFA0EB0901514502D9C6
:1006C0000320BDE8F0872068696800F00C00B0EBFB
:1006D000810FEFD1D8F80010404601F00F01B14270
:1006E00007D90770006800F00F00B04201D0012068
:1006F000E7E72878400705D52068E96820F4E0504E
:10070000084320602878000706D52068296920F46E
:10071000604040EAC100206000F018F82168084AF3
:10072000C1F30311515CC8400649086006480068DF
:10073000FFF706FF0020C4E7003C024008380240F3
:10074000BC1D00081C00002014000020154810B536
:10075000006810F00C02144813D04110042A0FD086
:10076000082A0ED10F4C241F2268236802F03F0292
:100770005B0207D52068C0F38810A0FB010106E0EA
:10078000084610BD2168C1F38811A1FB00010023B8
:10079000FFF716FD2168C1F30141491C4900B0FB78
:1007A000F1F010BD083802400024F4002DE9F84FA4
:1007B000040076D02078DFF838A3CE4DC00749D0AA
:1007C000DAF800105046C1F38101012908D0006811
:1007D000C0F3810002280AD1281D0068400206D516
:1007E0002868800336D560680028E2D032E060686F
:1007F000B0F5803F10D0B0F5A02F286810D020F4BD
:1008000080302860286820F4802028606068A0B1CB
:10081000FFF76EFE06460CE0286840F48030F4E7EF
:1008200040F480202860F7E7FFF762FE801B642811
:1008300073D828688003F7D50CE0FFF759FE064609
:1008400005E000BFFFF754FE801B6428F0D828683D
:100850008003F7D42078DFF8A08280074FF00009EA
:100860003ED5DAF80010504611F00C0F09D00068A0
:10087000C0F3810002280BD19D48001F0068400290
:1008800006D42868800715D5E068012809D111E051
:10089000E068B8B10120C8F80000FFF729FE06465D
:1008A00005E020E1FFF724FE801B0228C0D828685D
:1008B0008007F7D52868216920F0F80040EAC100D8
:1008C00028600DE0C8F80090FFF712FE064604E02D
:1008D000FFF70EFE801B02281FD828688007F7D478
:1008E0002078000722D5824E844861696C3671B148
:1008F00001210160FFF7FCFD074604E0FFF7F8FD6A
:10090000C01B022809D830688007F7D50EE0C0F870
:100910000090FFF7EDFD074605E082E0FFF7E8FDF8
:10092000C01B02287DD830688007F7D420784007A4
:1009300068D5DFF8BCB100270BF1380BDBF80000FD
:10094000C0000BD4DBF8001041F08051CBF8001050
:10095000DBF80000012700F080500090684E3068FE
:10096000C00510D4306840F480703060FFF7C0FDDF
:10097000009005E0FFF7BCFD0099401A022850D80E
:100980003068C005F6D55A4EA068683601280FD0E9
:100990000528306810D020F001003060306820F069
:1009A00004003060A068B8B1FFF7A2FD00900FE02E
:1009B000306840F00100F4E740F004003060F7E7F1
:1009C000FFF796FD0099411A41F28830814266D8BE
:1009D00030688007F4D50EE0FFF78AFD009007E04D
:1009E000FFF786FD0099411A41F28830814256D8BE
:1009F00030688007F4D42FB1DBF8001021F080516B
:100A0000CBF80010A069D0B3DAF800205146C2F349
:100A10008102022A4AD00228484607D0C8F860005E
:100A200000E03CE0FFF764FD04463BE04746C8F8C1
:100A30006000FFF75DFD064605E000BFFFF758FDCB
:100A4000801B02282BD828688001F7D4D4E907013D
:100A50000843A16A2B4A490802EB0141626A41EA54
:100A60008211084394F82C1040EA01612048001FCD
:100A7000016001203866FFF73BFD044605E034E0E5
:100A8000FFF736FD001B022809D828688001F7D53A
:100A90002BE000BFFFF72CFD001B022802D903202A
:100AA000BDE8F88F28688001F4D41EE00128F7D053
:100AB0000868E26900F48001914214D1226A00F0D2
:100AC0003F0191420FD147F6C071626A01409142E5
:100AD00009D1A26A00F44031914204D1E16A00F0E8
:100AE0007060884201D00120DAE70020D8E70000DA
:100AF000083802400038024000004742800E47425A
:100B0000007000400000FFFF90F85100704770B582
:100B1000040005D00025A56294F8510010B106E04C
:100B2000012070BD84F85050204600F031F80220BA
:100B300084F851002068016821F040010160D4E987
:100B400001010843D4E903121143084361690843D2
:100B5000218B01F400710843E1690843216A0843CD
:100B6000A16A084321680860A069042101EA1040D5
:100B7000616A0843216848602068C16921F4006106
:100B8000C1616565012084F85100002070BD00003E
:100B900010B586B0044614216846FFF75BFB134985
:100BA0002068884220D112480021026842F4805215
:100BB0000260006800F4805005900D481438026807
:100BC00042F001020260006800F001000590E020A0
:100BD00000900220CDE9010103200390052004903C
:100BE00069460448FFF79EFB06B010BD0030014087
:100BF00044380240000002402DE9F84F044690F8C6
:100C0000500000271D461646894601280DD04FF09A
:100C1000010B84F850B0FFF76BFC804694F851004C
:100C2000BA46012804D002278EE00220BDE8F88FE2
:100C3000B9F1000F7DD0002E7BD0032084F8510045
:100C4000C4F854A0C4F83090A686E686C4F838A04C
:100C5000A4F83CA0A4F83EA0C4F844A0C4F840A066
:100C6000A068B0F5004F04D12068016841F48041CC
:100C7000016020680168490603D4016841F0400121
:100C80000160E068B0F5006F606803D030B3012EFA
:100C900024D040E008B1012E1CD1206B21680088CF
:100CA000C86006E020688168890709D5216B09883A
:100CB000C160206B801C2063E08E401EE08609E04E
:100CC000FFF716FCA0EB0800A84202D3681C01D075
:100CD00031E07DB3E08E0028E4D11FE0206B216875
:100CE0000078087306E020688168890709D5216BC0
:100CF00009780173206B401C2063E08E401EE08663
:100D000009E0FFF7F5FBA0EB0800A84202D3681C3E
:100D100001D010E075B1E08E0028E4D142462946AA
:100D2000204600F0AFF908B120206065A06820B12E
:100D300007E008E0FFE7032706E02068C168806855
:100D40000090606D00B1012784F851B084F850A084
:100D500038466BE72DE9F84F044690F8500000271D
:100D60000A9E1D4692468B464FF0010901280ED07F
:100D7000012084F85000FFF7BBFB804694F8510037
:100D8000616801280CD0B1F5827F07D102E0022012
:100D9000BDE8F88FA16809B9042801D00227C2E094
:100DA000BBF1000F27D0BAF1000F24D01DB394F887
:100DB0005100042802D0052084F85100002060650D
:100DC000C4F838A0E587A587C4F830B0E586A586C5
:100DD0002064606420680168490603D4016841F01A
:100DE00040010160E068B0F5006F606805D0E8B3CD
:100DF000012D46D07FE0012795E008B1012D39D1C2
:100E0000206B21680088C860206B801C2063E08E06
:100E1000401EE0862EE02068816889070FD5E18EAC
:100E200069B1B9F1010F0AD1216B0988C160206B4A
:100E3000801C2063E08E401EE0864FF00009206891
:100E40008168C9070CD0E18F51B1C068A16B0880DF
:100E5000A06B801CA063E08F401EE0874FF001096B
:100E6000FFF746FBA0EB0800B04200E009E001D329
:100E7000701C50D1E08E0028CDD1E08F0028CAD15F
:100E80003FE0206B216800780873206B401C2063D2
:100E9000E08E401EE0862EE02068816889070FD52D
:100EA000E18E69B1B9F1010F0AD1216B09780173A3
:100EB000206B401C2063E08E401EE0864FF000094E
:100EC00020688168C9070CD0E18F51B1C068A16B5F
:100ED0000870A06B401CA063E08F401EE0874FF0BD
:100EE0000109FFF705FBA0EB0800B04202D3701C1C
:100EF00001D010E07EB1E08E0028CDD1E08F002837
:100F0000CAD142463146204600F0BCF828B101273C
:100F10002020606507E0032705E0A06818B9206875
:100F2000C16880680090012084F85100002084F896
:100F3000500038462CE710B5401EB0F1807F01D339
:100F4000012010BD4FF0E02460610F21601700F018
:100F500009FC0020A06107202061002010BDFEE7F1
:100F60002DE9F04387B014216846FFF773F92E4846
:100F70000024016841F080010160016801F08001F6
:100F80000591016841F001010160016801F0010172
:100F90000591016841F002010160016801F0020160
:100FA0000591016841F00801016000681F4F00F0E1
:100FB00008000590012210213846FFF794FADFF867
:100FC0007080012202214046FFF78DFA0122DFF8EE
:100FD0006490560331464846FFF785FA102000908A
:100FE0000125CDE90154694638460394FFF79AF983
:100FF0000520CDE90004694640460294FFF792F9C6
:1010000002200090CDE90154694640460394FFF761
:1010100089F90096CDE90154694648460394FFF7E3
:1010200081F907B0BDE8F08330380240000002408B
:1010300000040240000C02400F4810B50D49016049
:101040004FF48271416000218160C1604FF40072F1
:101050000161C0E90512C1610162416281620A2138
:10106000C162FFF754FD002803D0BDE81040FFF730
:1010700045B910BD003001408C010020FEE77047EB
:101080007047000038B504461248134B0068B0FBA7
:10109000F3F04FF47A73584300906068B0F5827FA4
:1010A0000DD10B46009200228021204600F016F858
:1010B00070B1606D40F020006065032038BD00987D
:1010C00030B1401E009020688068C0430006F6D50D
:1010D000002038BD1C00002000366E012DE9F041D3
:1010E0001D4617460E460446DDF8188008E0681CC9
:1010F00006D0FFF7FDF9A0EB0800A8420BD255B1CE
:101100002068806836EA000030D00020B842EED176
:101110000020BDE8F0812068416821F0E0014160D5
:101120006068B0F5827F0BD1A068B0F5004F02D0A7
:10113000B0F5806F04D12068016821F040010160A2
:10114000A06AB0F5005F09D12068016821F4005160
:1011500001602068016841F400510160012084F8B9
:101160005100002084F850000320D2E70120CDE791
:10117000704770B515460E460446017200F0DCF962
:1011800084224D21204600F027F9FF222421204609
:1011900000F022F901224021204600F01DF93F22F3
:1011A0001121204600F018F9204600F042F932469D
:1011B0002221204600F010F90F21204600F0FDF812
:1011C00002460D21204600F007F98D22012120461C
:1011D00000F002F9002084F80A011821204600F0EE
:1011E000ECF8400703D503206072012070BD6D1E2E
:1011F00003D0012000F0ADF9EFE7206800F0B5F969
:10120000204600F099F9002070BD70B516460C46D6
:101210000546017200F090F987224D21284600F022
:10122000DBF800222421284600F0D6F84122402194
:10123000284600F0D1F8284600F0FBF8F7221121EB
:10124000284600F0C9F822462221284600F0C4F8BA
:101250000E21284600F0B1F802460D21284600F084
:10126000BBF82221284600F0A8F8A04203D10220B2
:101270006872012070BD761EF3D1286800F075F900
:10128000284600F059F9002070BD70B5044600688A
:1012900000F061F908B304F10A004FF480710646CA
:1012A000FEF7D8FF1021204600F087F802460D21F6
:1012B000204600F091F8A07990B11321204600F06B
:1012C0007CF805462B4632460021204600F035F8D2
:1012D00084F80A51204600F0ACF894F80A0170BD79
:1012E000257AEFE770B51D4613460A4604460021ED
:1012F00000F042F88B220121204600F06DF82068B2
:1013000000F029F958B11221204600F056F8204685
:1013100000F08FF8204600F0A3F9012070BD6D1E8B
:1013200003D0012000F015F9E9E7206800F01DF96D
:10133000204600F001F9002070BD2DE9F0411E4665
:1013400017460C460546012B14D90021286800F0E9
:1013500052F92146286800F020F9002404E000F04A
:101360002EF93855641CE4B22868B442F7D3012141
:1013700000F041F9BDE8F0812DE9F0411E46174625
:101380000C460546012B16D90021286800F033F9D8
:1013900044F08001286800F000F9002405E0395D80
:1013A000286800F0FAF8641CE4B2B442F7D30121D3
:1013B000286800F020F9BDE8F08170B504460068A7
:1013C00000F0EBF8206800F0FAF8054601212068EB
:1013D00000F011F9284670BD70B50D46044616465A
:1013E0000068002100F007F945F08001206800F056
:1013F000D4F83146206800F0D0F80121206800F0D0
:10140000FAF870BD2DE9F0470446DDE908891D466C
:1014100016460F46006800F0F8F827716671A5714E
:1014200084F8078084F808902046BDE8F04700F073
:1014300083B8FF221221FFF7CFBF00002DE9F04152
:101440001C4615460F468046069E00F000F90F2008
:1014500000F07FF8404600F078F8364907EB470087
:101460004218032306214046FFF786FF3148092131
:10147000C01C425D4046FFF7AFFF0B2211464046BD
:10148000FFF7AAFF23220C214046FFF7A5FF294DB5
:101490000727ED1DE81D295D805D06292BD002215F
:1014A00001EB0010C2B21D214046FFF795FF285DF9
:1014B0001E2107EB0010C2B24046FFF78DFFFF224E
:1014C0001F214046FFF788FF002220214046FFF7FA
:1014D00083FF0C2221214046FFF77EFF012241219C
:1014E0004046FFF779FF0021404688F80A11BDE821
:1014F000F04100F0B5B8032101EB0010C2B21D218C
:101500004046FFF769FF285D1E2107EB0010C2B2BD
:101510004046FFF761FF31214046FFF74EFF00F0E4
:10152000F80040F0050231214046FFF755FF0C223C
:101530003721C1E7A41D000808B5C179009183795E
:1015400042790179FFF77AFF08BD88220121FFF770
:1015500043BFFEF7D5BE10B50189C06889B2FEF75A
:10156000BDFF012800D0002010BD10B504460121A8
:1015700000F041F82088002281B26068FEF7B3FFD6
:101580000120FFF7E6FF2088012281B26068FEF7A4
:10159000AAFF6420FFF7DDFF10BD13B5044600214C
:1015A00000F029F84FF47A73012201A9A069FFF72E
:1015B00023FBA069FFF7A8FA0128FAD11CBD3EB5AC
:1015C000044600208DF808008DF8040001462046EE
:1015D00000F011F84FF47A700090012301AA02A9DB
:1015E000A069FFF7B7FBA069FFF78EFA0128FAD1CF
:1015F0009DF804003EBD012905D00022018A406902
:1016000089B2FEF770BF0122F8E710B50446012148
:10161000FFF7F1FF2088012281B26068BDE8104029
:10162000FEF761BF70B5054690F80A0114460E46F4
:10163000A04200D00446224605F10A013046FEF7DA
:10164000F0FD0020305585F80A01204670BD10B528
:10165000044608220121FFF7BFFE0020607210BD82
:1016600010B5044609220121FFF7B6FE0120607281
:1016700010BDFEF743BF000030B593B0302168467F
:10168000FEF7E8FD14210CA8FEF7E4FD194800253B
:10169000016841F080510160006800F080501190B5
:1016A0001548016841F4804101600068022400F49B
:1016B0008040119001200390102004900094069423
:1016C0000820CDE907508020CDE9090407200B90C0
:1016D0006846FFF76BF80F20CDE90C04B020CDE988
:1016E0000E05E002109000210CA8FEF795FF13B044
:1016F00030BD0000403802400070004005480168DD
:1017000041F47001016003494FF0006080390860C6
:101710007047000088ED00E0FEE700000FB4054BC5
:1017200010B503A9044A029800F03CF810BC5DF81B
:1017300014FB0000F11A0008200000200FB4084B31
:1017400010B504A902AA039800F02CF8044602A9D7
:10175000002000F0C8F9204610BC5DF814FB000022
:10176000E71A00080907090E002804DB00F1E02051
:1017700080F80014704700F00F0000F1E02080F8BE
:10178000141D704702E008C8121F08C1002AFAD1D0
:1017900070477047002001E001C1121F002AFBD1F1
:1017A000704700002DE9FF4F8BB0884605460026A4
:1017B00006E025280BD0DDE90D1290476D1C761C44
:1017C00028780028F5D10FB03046BDE8F08F00240E
:1017D000A146A2460122AE4900E0044315F8013FAC
:1017E000203B02FA03F00842F7D128782A2810D0CB
:1017F0006FF02F022878A0F13001092915D809EBE4
:10180000890102EB410144F0020400EB01096D1C67
:10181000F0E758F8041B5FEA010903D544F40054CB
:10182000C9F1000944F002046D1C28782E2817D154
:1018300015F8010F44F004042A280ED06FF02F028F
:101840002878A0F1300109290AD80AEB8A0102EBB5
:10185000410100EB010A6D1CF2E758F804AB6D1C66
:1018600028786C280FD006DC4C2817D068280DD0BB
:101870006A2814D104E0742810D07A280FD10DE022
:1018800044F400140AE044F4801401E044F44014E9
:101890006978814202D104F580146D1C6D1C287892
:1018A000692865D006DC00288DD0632827D06428FD
:1018B00006D15DE06E2808D073282AD0752877D02D
:1018C000DDE90D129047761CE0E0C4F302500228D7
:1018D00009D003280DD0D8F8001004280DD00E60D0
:1018E00008F10408D2E0D8F80010F217C1E900624C
:1018F000F6E7D8F800100E80F2E70E70F0E718F85F
:10190000041B8DF8001000208DF80100EB4601202B
:1019100003E058F804BB4FF0FF3061074FF00007B9
:1019200001D40AE07F1C57450DDA8742FADB1BF829
:1019300007100029F6D106E07F1C8742FCDB1BF86C
:1019400007100029F8D1DDE90D23A9EB0700814636
:10195000214600F0B1F83044C61904E0DDE90D126B
:101960001BF8010B90477F1EF8D22146484688E0BD
:1019700058F8040BC4F302514FF00A0B032900D1AD
:1019800000B2042900D140B2002802DA40422D21E1
:1019900002E0210505D52B218DF82410012104E05A
:1019A00006E0E10710D02021F6E708AF089113E028
:1019B00058F8040BC4F302514FF00A0B032900D16D
:1019C00080B2042900D1C0B20021EEE75946FEF7EB
:1019D0004CFC303107F8011D0028F7D1ADEB0700B2
:1019E00000F1200B600702D524F4803401E04FF0B1
:1019F000010ADA4502DDAAEB0B0000E00020824676
:101A000000EB0B0108980144A9EB01000A90E003E8
:101A100006D4DDE90D2321460A9800F04DF806446E
:101A20004FF0000908E009A911F80900DDE90D12DD
:101A3000904709F10109761C08998945F3DBE00319
:101A40000CD5DDE90D2321460A9800F035F806444F
:101A500004E0DDE90D1230209047761CBAF1000158
:101A6000AAF1010AF5DC05E0DDE90D1217F8010B1A
:101A70009047761CBBF10001ABF1010BF4DC0A9836
:101A80002146DDE90D2300F005F806446D1C97E6BC
:101A9000092801002DE9F041044600251E4617469D
:101AA000880404D405E039462020B0476D1C641E2C
:101AB000F9D52846BDE8F0812DE9F041044600251E
:101AC0001E469046C80301D5302700E02027880431
:101AD00004D505E041463846B0476D1C641EF9D573
:101AE0002846BDE8F0810A68531C0B6010707047EF
:101AF00038B504468DF8000069460320ABBE204689
:101B000038BD00001CB5FEF701FDFFF7B5FDFFF77E
:101B100027FAFFF791FA504D04212846FEF7DEFC24
:101B20004E4C012820605ED04DA0FFF7F7FD01224A
:101B300004212846FEF7D7FC4D480121C0E90215D3
:101B40004C494161102101610221C0E900154A4957
:101B5000816100F11C01086048A0FFF7DFFD0A2148
:101B60000320CDE9000142480223012200211C305C
:101B7000FFF748FC48A0FFF7D1FD20684FF4FA6555
:101B800001283B482A464FF0100100F11C002FD0DD
:101B9000FFF7EFFA6060206801282CD046A0FFF71D
:101BA000BDFD4FF47A70FEF7ABFB46A0FFF7B6FD24
:101BB0002F481C30FFF769FB0146606047A0FFF724
:101BC000ADFD606800280ADD4849C2B2A1F5867003
:101BD000FFF728FD454A46A06168FFF79FFD49A031
:101BE000FFF79CFDD7E74DA0FFF798FD00229FE788
:101BF000FFF70BFBCEE74DA0FFF790FD40F6C410BA
:101C0000FEF77EFB4DA0FFF789FD52A13748A26881
:101C1000FFF794FDC1B2E06015482A461C30FFF77B
:101C2000F4FA014660604EA0FFF778FD2F494FA0FF
:101C3000FFF774FD2D49227B2B46A1F58670FFF737
:101C400051FB01466060A068401CA0604BA0FFF7FC
:101C500065FD4FA0C4E70000000402400000002022
:101C60004D6F64653A20536C6176650D0A00000083
:101C700024000020000002408C010020436F6E66AB
:101C800069677572696E67204C6F5261206D6F6471
:101C9000756C650D0A000000446F6E6520636F6E01
:101CA0006669677572696E67204C6F52614D6F642B
:101CB000756C650D0A000000536C617665202E2E50
:101CC0002E0D0A00526563656976696E6720706142
:101CD000636B6167652E2E2E0D0A000052656365E9
:101CE000697665643A2025640D0A00004C010020E5
:101CF000436F6E74656E7420282564293A2025731D
:101D00000D0A00005061636B616765207265636551
:101D100069766564202E2E2E0D0A00004D6F6465D5
:101D20003A204D61737465720D0A00004D61737441
:101D30006572202E2E2E0D0A0000000053656E6481
:101D4000696E67207061636B6167652E2E2E0D0AC8
:101D50000000000048656C6C6F20256400000000E6
:101D6000456E7472793A2025640D0A0053656E64DD
:101D7000696E672025730D0A000000005472616EC1
:101D8000736D697373696F6E3A2025640D0A0000E4
:101D90005061636B6167652073656E742E2E2E0D26
:101DA0000A000000D92004FFFCF9F6060708090A1A
:101DB0000B0C0001020304050607080900000000DF
:101DC000000000000102030406070809EC1D0008DA
:101DD000000000202400000084170008101E0008E6
:101DE00024000020C4050000941700080000000033
:101DF00000000000000000000000000001000000E2
:101E000010000000000000000024F40000000000AA
:040000050800018965
:00000001FF
